{
  "contractName": "Decentralize",
  "abi": [
    {
      "anonymous": false,
      "inputs": [
        {
          "indexed": true,
          "name": "_projectId",
          "type": "uint256"
        },
        {
          "indexed": false,
          "name": "_user",
          "type": "address"
        },
        {
          "indexed": false,
          "name": "_message",
          "type": "bytes32"
        }
      ],
      "name": "Commit",
      "type": "event"
    },
    {
      "constant": false,
      "inputs": [
        {
          "name": "_name",
          "type": "bytes32"
        }
      ],
      "name": "createProject",
      "outputs": [],
      "payable": false,
      "stateMutability": "nonpayable",
      "type": "function"
    },
    {
      "constant": false,
      "inputs": [
        {
          "name": "_projectId",
          "type": "uint256"
        },
        {
          "name": "_teammate",
          "type": "address"
        }
      ],
      "name": "inviteTeammate",
      "outputs": [],
      "payable": false,
      "stateMutability": "nonpayable",
      "type": "function"
    },
    {
      "constant": false,
      "inputs": [
        {
          "name": "_projectId",
          "type": "uint256"
        },
        {
          "name": "_newHash",
          "type": "bytes32"
        },
        {
          "name": "_commitMessage",
          "type": "bytes32"
        }
      ],
      "name": "submitCode",
      "outputs": [],
      "payable": false,
      "stateMutability": "nonpayable",
      "type": "function"
    }
  ],
  "bytecode": "0x6080604052600160005534801561001557600080fd5b50610549806100256000396000f3fe608060405260043610610057576000357c0100000000000000000000000000000000000000000000000000000000900463ffffffff1680637a8fec221461005c578063817d3b1f146100b7578063936b913c146100f2575b600080fd5b34801561006857600080fd5b506100b56004803603604081101561007f57600080fd5b8101908080359060200190929190803573ffffffffffffffffffffffffffffffffffffffff169060200190929190505050610141565b005b3480156100c357600080fd5b506100f0600480360360208110156100da57600080fd5b81019080803590602001909291905050506102ac565b005b3480156100fe57600080fd5b5061013f6004803603606081101561011557600080fd5b81019080803590602001909291908035906020019092919080359060200190929190505050610393565b005b813373ffffffffffffffffffffffffffffffffffffffff166002600083815260200190815260200160002060009054906101000a900473ffffffffffffffffffffffffffffffffffffffff1673ffffffffffffffffffffffffffffffffffffffff1614151561023e576040517f08c379a000000000000000000000000000000000000000000000000000000000815260040180806020018281038252602f8152602001807f536f7272792c206f6e6c792070726f6a656374206f776e65722063616e20736581526020017f6e6420696e7669746174696f6e732e000000000000000000000000000000000081525060400191505060405180910390fd5b60016005600085815260200190815260200160002060008473ffffffffffffffffffffffffffffffffffffffff1673ffffffffffffffffffffffffffffffffffffffff16815260200190815260200160002060006101000a81548160ff021916908315150217905550505050565b806001600080548152602001908152602001600020819055506001600560008054815260200190815260200160002060003373ffffffffffffffffffffffffffffffffffffffff1673ffffffffffffffffffffffffffffffffffffffff16815260200190815260200160002060006101000a81548160ff021916908315150217905550336002600080600081548092919060010191905055815260200190815260200160002060006101000a81548173ffffffffffffffffffffffffffffffffffffffff021916908373ffffffffffffffffffffffffffffffffffffffff16021790555050565b82600115156005600083815260200190815260200160002060003373ffffffffffffffffffffffffffffffffffffffff1673ffffffffffffffffffffffffffffffffffffffff16815260200190815260200160002060009054906101000a900460ff161515141515610493576040517f08c379a000000000000000000000000000000000000000000000000000000000815260040180806020018281038252602e8152602001807f536f7272792c206f6e6c79207065726d697373696f6e6564207573657273206381526020017f616e207375626d697420636f646500000000000000000000000000000000000081525060400191505060405180910390fd5b826003600086815260200190815260200160002081905550837fe9f0509f69a8b983b8bdb406266fe9dc7828b5f79d420d48ba682a93968947a63384604051808373ffffffffffffffffffffffffffffffffffffffff1673ffffffffffffffffffffffffffffffffffffffff1681526020018281526020019250505060405180910390a25050505056fea165627a7a723058202307b7d6a98abf65b21822dce27ac9bc20081cf41a482b3d6f5de7a3b8fcda280029",
  "source": "pragma solidity ^0.5.0;\r\n\r\ncontract Decentralize {\r\n  uint projectId = 1;\r\n\r\n  mapping(uint => bytes32) projectIdToName;\r\n  mapping(uint => address) projectIdToOwner;\r\n  mapping(uint => bytes32) projectIdToIPFSHash;\r\n  mapping(uint => bytes32[]) projectIdToCommits;\r\n\r\n  mapping(uint => mapping(address => bool)) projectPermissions; // projectId => (userAddress => bool) ...does user have permission?\r\n\r\n  event Commit(uint indexed _projectId, address _user, bytes32 _message);\r\n\r\n  modifier onlyOwner(uint _projectId){\r\n    require(projectIdToOwner[_projectId] == msg.sender, \"Sorry, only project owner can send invitations.\");\r\n    _;\r\n  }\r\n\r\n  modifier onlyPermissionedUsers(uint _projectId){\r\n    require(projectPermissions[_projectId][msg.sender] == true, \"Sorry, only permissioned users can submit code\");\r\n    _;\r\n  }\r\n\r\n  function createProject(bytes32 _name) public {\r\n    projectIdToName[projectId] = _name;\r\n    projectPermissions[projectId][msg.sender] = true;\r\n    projectIdToOwner[projectId++] = msg.sender;\r\n  }\r\n\r\n  function inviteTeammate(uint _projectId, address _teammate) public onlyOwner(_projectId){\r\n    projectPermissions[_projectId][_teammate] = true;\r\n  }\r\n\r\n  // updates projectId => IPFShash pointer\r\n  function submitCode(uint _projectId, bytes32 _newHash, bytes32 _commitMessage) public onlyPermissionedUsers(_projectId){\r\n    projectIdToIPFSHash[_projectId] = _newHash;\r\n    emit Commit(_projectId, msg.sender, _commitMessage);\r\n  }\r\n  \r\n\r\n\r\n}\r\n",
  "sourcePath": "C:/Users/Tiffany/Desktop/coinbase_hackathon/contracts/Decentralize.sol",
  "compiler": {
    "name": "solc",
    "version": "0.5.0+commit.1d4f565a.Emscripten.clang"
  },
  "schemaVersion": "3.0.9",
  "updatedAt": "2019-05-11T17:11:33.272Z",
  "devdoc": {
    "methods": {}
  },
  "userdoc": {
    "methods": {}
  }
}