{
  "contractName": "Decentralize",
  "abi": [
    {
      "anonymous": false,
      "inputs": [
        {
          "indexed": true,
          "name": "_creator",
          "type": "address"
        },
        {
          "indexed": false,
          "name": "_projectId",
          "type": "uint256"
        },
        {
          "indexed": false,
          "name": "_name",
          "type": "bytes32"
        }
      ],
      "name": "ProjectCreated",
      "type": "event"
    },
    {
      "anonymous": false,
      "inputs": [
        {
          "indexed": true,
          "name": "_invitee",
          "type": "address"
        },
        {
          "indexed": false,
          "name": "_inviter",
          "type": "address"
        },
        {
          "indexed": false,
          "name": "_projectId",
          "type": "uint256"
        }
      ],
      "name": "UserInvited",
      "type": "event"
    },
    {
      "anonymous": false,
      "inputs": [
        {
          "indexed": true,
          "name": "_projectId",
          "type": "uint256"
        },
        {
          "indexed": false,
          "name": "_user",
          "type": "address"
        },
        {
          "indexed": false,
          "name": "_message",
          "type": "bytes32"
        }
      ],
      "name": "Commit",
      "type": "event"
    },
    {
      "constant": false,
      "inputs": [
        {
          "name": "_name",
          "type": "bytes32"
        }
      ],
      "name": "createProject",
      "outputs": [],
      "payable": false,
      "stateMutability": "nonpayable",
      "type": "function"
    },
    {
      "constant": false,
      "inputs": [
        {
          "name": "_projectId",
          "type": "uint256"
        },
        {
          "name": "_teammate",
          "type": "address"
        }
      ],
      "name": "inviteTeammate",
      "outputs": [],
      "payable": false,
      "stateMutability": "nonpayable",
      "type": "function"
    },
    {
      "constant": false,
      "inputs": [
        {
          "name": "_projectId",
          "type": "uint256"
        },
        {
          "name": "_newHash",
          "type": "bytes32"
        },
        {
          "name": "_commitMessage",
          "type": "bytes32"
        }
      ],
      "name": "commitCode",
      "outputs": [],
      "payable": false,
      "stateMutability": "nonpayable",
      "type": "function"
    },
    {
      "constant": false,
      "inputs": [
        {
          "name": "_username",
          "type": "bytes32"
        }
      ],
      "name": "addUsername",
      "outputs": [],
      "payable": false,
      "stateMutability": "nonpayable",
      "type": "function"
    },
    {
      "constant": true,
      "inputs": [
        {
          "name": "_projectId",
          "type": "uint256"
        }
      ],
      "name": "getUsersByProjectId",
      "outputs": [
        {
          "name": "userIds",
          "type": "address[]"
        }
      ],
      "payable": false,
      "stateMutability": "view",
      "type": "function"
    },
    {
      "constant": true,
      "inputs": [
        {
          "name": "_projectId",
          "type": "uint256"
        }
      ],
      "name": "getNameByProjectId",
      "outputs": [
        {
          "name": "",
          "type": "bytes32"
        }
      ],
      "payable": false,
      "stateMutability": "view",
      "type": "function"
    },
    {
      "constant": true,
      "inputs": [
        {
          "name": "_projectId",
          "type": "uint256"
        }
      ],
      "name": "getCommitMessagesByProjectId",
      "outputs": [
        {
          "name": "commits",
          "type": "bytes32[]"
        }
      ],
      "payable": false,
      "stateMutability": "view",
      "type": "function"
    },
    {
      "constant": true,
      "inputs": [
        {
          "name": "_projectId",
          "type": "uint256"
        }
      ],
      "name": "getCommitTimestampsByProjectId",
      "outputs": [
        {
          "name": "timestamps",
          "type": "uint256[]"
        }
      ],
      "payable": false,
      "stateMutability": "view",
      "type": "function"
    },
    {
      "constant": true,
      "inputs": [
        {
          "name": "_user",
          "type": "address"
        }
      ],
      "name": "getProjectsByUserId",
      "outputs": [
        {
          "name": "projectIds",
          "type": "uint256[]"
        }
      ],
      "payable": false,
      "stateMutability": "view",
      "type": "function"
    },
    {
      "constant": true,
      "inputs": [
        {
          "name": "_address",
          "type": "address"
        }
      ],
      "name": "getUsernameByAddress",
      "outputs": [
        {
          "name": "",
          "type": "bytes32"
        }
      ],
      "payable": false,
      "stateMutability": "view",
      "type": "function"
    },
    {
      "constant": true,
      "inputs": [
        {
          "name": "_projectId",
          "type": "uint256"
        }
      ],
      "name": "getIPFSHashByProjectId",
      "outputs": [
        {
          "name": "",
          "type": "bytes32"
        }
      ],
      "payable": false,
      "stateMutability": "view",
      "type": "function"
    }
  ],
  "bytecode": "0x6080604052600160005534801561001557600080fd5b50610f25806100256000396000f3fe6080604052600436106100af576000357c0100000000000000000000000000000000000000000000000000000000900463ffffffff1680631c7324fd146100b45780633616ac98146101035780637694b8cb146101935780637a8fec22146101e2578063809cb2521461023d578063817d3b1f146102cd57806393c7018014610308578063c4520bd814610357578063df749095146103fd578063eb2bae5d1461048d578063ed1a998d146104c8575b600080fd5b3480156100c057600080fd5b506100ed600480360360208110156100d757600080fd5b810190808035906020019092919050505061052d565b6040518082815260200191505060405180910390f35b34801561010f57600080fd5b5061013c6004803603602081101561012657600080fd5b810190808035906020019092919050505061054a565b6040518080602001828103825283818151815260200191508051906020019060200280838360005b8381101561017f578082015181840152602081019050610164565b505050509050019250505060405180910390f35b34801561019f57600080fd5b506101e0600480360360608110156101b657600080fd5b810190808035906020019092919080359060200190929190803590602001909291905050506105eb565b005b3480156101ee57600080fd5b5061023b6004803603604081101561020557600080fd5b8101908080359060200190929190803573ffffffffffffffffffffffffffffffffffffffff1690602001909291905050506107ef565b005b34801561024957600080fd5b506102766004803603602081101561026057600080fd5b8101908080359060200190929190505050610abe565b6040518080602001828103825283818151815260200191508051906020019060200280838360005b838110156102b957808201518184015260208101905061029e565b505050509050019250505060405180910390f35b3480156102d957600080fd5b50610306600480360360208110156102f057600080fd5b8101908080359060200190929190505050610b29565b005b34801561031457600080fd5b506103416004803603602081101561032b57600080fd5b8101908080359060200190929190505050610d4a565b6040518082815260200191505060405180910390f35b34801561036357600080fd5b506103a66004803603602081101561037a57600080fd5b81019080803573ffffffffffffffffffffffffffffffffffffffff169060200190929190505050610d67565b6040518080602001828103825283818151815260200191508051906020019060200280838360005b838110156103e95780820151818401526020810190506103ce565b505050509050019250505060405180910390f35b34801561040957600080fd5b506104366004803603602081101561042057600080fd5b8101908080359060200190929190505050610dfe565b6040518080602001828103825283818151815260200191508051906020019060200280838360005b8381101561047957808201518184015260208101905061045e565b505050509050019250505060405180910390f35b34801561049957600080fd5b506104c6600480360360208110156104b057600080fd5b8101908080359060200190929190505050610e69565b005b3480156104d457600080fd5b50610517600480360360208110156104eb57600080fd5b81019080803573ffffffffffffffffffffffffffffffffffffffff169060200190929190505050610eb0565b6040518082815260200191505060405180910390f35b600060036000838152602001908152602001600020549050919050565b6060600660008381526020019081526020016000208054806020026020016040519081016040528092919081815260200182805480156105df57602002820191906000526020600020905b8160009054906101000a900473ffffffffffffffffffffffffffffffffffffffff1673ffffffffffffffffffffffffffffffffffffffff1681526020019060010190808311610595575b50505050509050919050565b82600115156007600083815260200190815260200160002060003373ffffffffffffffffffffffffffffffffffffffff1673ffffffffffffffffffffffffffffffffffffffff16815260200190815260200160002060009054906101000a900460ff1615151415156106eb576040517f08c379a000000000000000000000000000000000000000000000000000000000815260040180806020018281038252602e8152602001807f536f7272792c206f6e6c79207065726d697373696f6e6564207573657273206381526020017f616e207375626d697420636f646500000000000000000000000000000000000081525060400191505060405180910390fd5b8260036000868152602001908152602001600020819055506004600085815260200190815260200160002082908060018154018082558091505090600182039060005260206000200160009091929091909150555060056000858152602001908152602001600020429080600181540180825580915050906001820390600052602060002001600090919290919091505550837fe9f0509f69a8b983b8bdb406266fe9dc7828b5f79d420d48ba682a93968947a63384604051808373ffffffffffffffffffffffffffffffffffffffff1673ffffffffffffffffffffffffffffffffffffffff1681526020018281526020019250505060405180910390a250505050565b813373ffffffffffffffffffffffffffffffffffffffff166002600083815260200190815260200160002060009054906101000a900473ffffffffffffffffffffffffffffffffffffffff1673ffffffffffffffffffffffffffffffffffffffff161415156108ec576040517f08c379a000000000000000000000000000000000000000000000000000000000815260040180806020018281038252602f8152602001807f536f7272792c206f6e6c792070726f6a656374206f776e65722063616e20736581526020017f6e6420696e7669746174696f6e732e000000000000000000000000000000000081525060400191505060405180910390fd5b60016007600085815260200190815260200160002060008473ffffffffffffffffffffffffffffffffffffffff1673ffffffffffffffffffffffffffffffffffffffff16815260200190815260200160002060006101000a81548160ff021916908315150217905550600660008481526020019081526020016000208290806001815401808255809150509060018203906000526020600020016000909192909190916101000a81548173ffffffffffffffffffffffffffffffffffffffff021916908373ffffffffffffffffffffffffffffffffffffffff16021790555050600860008373ffffffffffffffffffffffffffffffffffffffff1673ffffffffffffffffffffffffffffffffffffffff16815260200190815260200160002060005490806001815401808255809150509060018203906000526020600020016000909192909190915055508173ffffffffffffffffffffffffffffffffffffffff167fdc566b7ee873a6ee97fdb61d85486753d241b0d3fb6bd6271292745c32f9a8ed3385604051808373ffffffffffffffffffffffffffffffffffffffff1673ffffffffffffffffffffffffffffffffffffffff1681526020018281526020019250505060405180910390a2505050565b606060056000838152602001908152602001600020805480602002602001604051908101604052809291908181526020018280548015610b1d57602002820191906000526020600020905b815481526020019060010190808311610b09575b50505050509050919050565b806001600080548152602001908152602001600020819055506001600760008054815260200190815260200160002060003373ffffffffffffffffffffffffffffffffffffffff1673ffffffffffffffffffffffffffffffffffffffff16815260200190815260200160002060006101000a81548160ff02191690831515021790555060066000805481526020019081526020016000203390806001815401808255809150509060018203906000526020600020016000909192909190916101000a81548173ffffffffffffffffffffffffffffffffffffffff021916908373ffffffffffffffffffffffffffffffffffffffff1602179055505033600260008054815260200190815260200160002060006101000a81548173ffffffffffffffffffffffffffffffffffffffff021916908373ffffffffffffffffffffffffffffffffffffffff160217905550600860003373ffffffffffffffffffffffffffffffffffffffff1673ffffffffffffffffffffffffffffffffffffffff16815260200190815260200160002060005490806001815401808255809150509060018203906000526020600020016000909192909190915055503373ffffffffffffffffffffffffffffffffffffffff167fcf5cc88f8a8c7be0f3344885908efc7cd11c3daef75029e99c81ca64b78875276000808154809291906001019190505583604051808381526020018281526020019250505060405180910390a250565b600060016000838152602001908152602001600020549050919050565b6060600860008373ffffffffffffffffffffffffffffffffffffffff1673ffffffffffffffffffffffffffffffffffffffff168152602001908152602001600020805480602002602001604051908101604052809291908181526020018280548015610df257602002820191906000526020600020905b815481526020019060010190808311610dde575b50505050509050919050565b606060046000838152602001908152602001600020805480602002602001604051908101604052809291908181526020018280548015610e5d57602002820191906000526020600020905b815481526020019060010190808311610e49575b50505050509050919050565b80600960003373ffffffffffffffffffffffffffffffffffffffff1673ffffffffffffffffffffffffffffffffffffffff1681526020019081526020016000208190555050565b6000600960008373ffffffffffffffffffffffffffffffffffffffff1673ffffffffffffffffffffffffffffffffffffffff16815260200190815260200160002054905091905056fea165627a7a7230582031399369f42af2f1ba09b9771b352ca71ee11ec23b9c641e8520a470a87d1c270029",
  "source": "pragma solidity ^0.5.0;\n\ncontract Decentralize {\n  uint projectId = 1;\n\n  mapping(uint => bytes32) projectIdToName;\n  mapping(uint => address) projectIdToOwner;\n  mapping(uint => bytes32) projectIdToIPFSHash;\n\n  mapping(uint => bytes32[]) projectIdToCommitMessages;\n  mapping(uint => uint[]) projectIdToCommitTimestamps;\n\n  mapping(uint => address[]) projectIdToUsers;\n  mapping(uint => mapping(address => bool)) projectPermissions; // projectId => (userAddress => bool) ...does user have permission?\n\n  mapping(address => uint[]) addressToProjects;\n  mapping(address => bytes32) addressToUsername;\n\n  event ProjectCreated(address indexed _creator, uint _projectId, bytes32 _name);\n  event UserInvited(address indexed _invitee, address _inviter, uint _projectId);\n  event Commit(uint indexed _projectId, address _user, bytes32 _message);\n\n\n  modifier onlyOwner(uint _projectId){\n    require(projectIdToOwner[_projectId] == msg.sender, \"Sorry, only project owner can send invitations.\");\n    _;\n  }\n\n  modifier onlyPermissionedUsers(uint _projectId){\n    require(projectPermissions[_projectId][msg.sender] == true, \"Sorry, only permissioned users can submit code\");\n    _;\n  }\n\n  function createProject(bytes32 _name) public {\n    projectIdToName[projectId] = _name;\n    projectPermissions[projectId][msg.sender] = true;\n    projectIdToUsers[projectId].push(msg.sender);\n    projectIdToOwner[projectId] = msg.sender;\n\n    addressToProjects[msg.sender].push(projectId);\n\n    emit ProjectCreated(msg.sender, projectId++, _name);\n  }\n\n  function inviteTeammate(uint _projectId, address _teammate) public onlyOwner(_projectId){\n    projectPermissions[_projectId][_teammate] = true;\n    projectIdToUsers[_projectId].push(_teammate);\n\n    addressToProjects[_teammate].push(projectId);\n    \n    emit UserInvited(_teammate, msg.sender, _projectId);\n  }\n\n  // updates projectId => IPFShash pointer\n  function commitCode(uint _projectId, bytes32 _newHash, bytes32 _commitMessage) public onlyPermissionedUsers(_projectId){\n    projectIdToIPFSHash[_projectId] = _newHash;\n    projectIdToCommitMessages[_projectId].push(_commitMessage);\n    projectIdToCommitTimestamps[_projectId].push(block.timestamp);\n\n    emit Commit(_projectId, msg.sender, _commitMessage);\n  }\n\n  // Add Profile Info\n  function addUsername(bytes32 _username) public {\n    addressToUsername[msg.sender] = _username;\n  }\n\n  // Getter functions\n  function getUsersByProjectId(uint _projectId) public view returns(address[] memory userIds) {\n    return projectIdToUsers[_projectId];\n  }\n\n  function getNameByProjectId(uint _projectId) public view returns(bytes32) {\n    return projectIdToName[_projectId];\n  }\n\n  function getCommitMessagesByProjectId(uint _projectId) public view returns(bytes32[] memory commits) {\n    return projectIdToCommitMessages[_projectId];\n  }\n\n  function getCommitTimestampsByProjectId(uint _projectId) public view returns(uint[] memory timestamps){\n    return projectIdToCommitTimestamps[_projectId];\n  }\n\n  function getProjectsByUserId(address _user) public view returns(uint[] memory projectIds){\n    return addressToProjects[_user];\n  }\n\n  function getUsernameByAddress(address _address) public view returns(bytes32){\n    return addressToUsername[_address];\n  }\n\n  function getIPFSHashByProjectId(uint _projectId) public view returns(bytes32){\n    return projectIdToIPFSHash[_projectId];\n  }\n\n}\n",
  "sourcePath": "/Users/michaeljcohen/Desktop/projects/decentralized_git/contracts/Decentralize.sol",
  "compiler": {
    "name": "solc",
    "version": "0.5.0+commit.1d4f565a.Emscripten.clang"
  },
  "schemaVersion": "3.0.2",
  "updatedAt": "2019-05-12T13:48:18.238Z",
  "devdoc": {
    "methods": {}
  },
  "userdoc": {
    "methods": {}
  }
}