{
  "contractName": "Decentralize",
  "abi": [
    {
      "anonymous": false,
      "inputs": [
        {
          "indexed": true,
          "name": "_creator",
          "type": "address"
        },
        {
          "indexed": false,
          "name": "_projectId",
          "type": "uint256"
        },
        {
          "indexed": false,
          "name": "_name",
          "type": "bytes32"
        }
      ],
      "name": "ProjectCreated",
      "type": "event",
      "signature": "0xcf5cc88f8a8c7be0f3344885908efc7cd11c3daef75029e99c81ca64b7887527"
    },
    {
      "anonymous": false,
      "inputs": [
        {
          "indexed": true,
          "name": "_invitee",
          "type": "address"
        },
        {
          "indexed": false,
          "name": "_inviter",
          "type": "address"
        },
        {
          "indexed": false,
          "name": "_projectId",
          "type": "uint256"
        }
      ],
      "name": "UserInvited",
      "type": "event",
      "signature": "0xdc566b7ee873a6ee97fdb61d85486753d241b0d3fb6bd6271292745c32f9a8ed"
    },
    {
      "anonymous": false,
      "inputs": [
        {
          "indexed": true,
          "name": "_projectId",
          "type": "uint256"
        },
        {
          "indexed": false,
          "name": "_user",
          "type": "address"
        },
        {
          "indexed": false,
          "name": "_message",
          "type": "bytes32"
        }
      ],
      "name": "Commit",
      "type": "event",
      "signature": "0xe9f0509f69a8b983b8bdb406266fe9dc7828b5f79d420d48ba682a93968947a6"
    },
    {
      "constant": false,
      "inputs": [
        {
          "name": "_name",
          "type": "bytes32"
        }
      ],
      "name": "createProject",
      "outputs": [],
      "payable": false,
      "stateMutability": "nonpayable",
      "type": "function",
      "signature": "0x817d3b1f"
    },
    {
      "constant": false,
      "inputs": [
        {
          "name": "_projectId",
          "type": "uint256"
        },
        {
          "name": "_teammate",
          "type": "address"
        }
      ],
      "name": "inviteTeammate",
      "outputs": [],
      "payable": false,
      "stateMutability": "nonpayable",
      "type": "function",
      "signature": "0x7a8fec22"
    },
    {
      "constant": false,
      "inputs": [
        {
          "name": "_projectId",
          "type": "uint256"
        },
        {
          "name": "_newHash",
          "type": "bytes32"
        },
        {
          "name": "_commitMessage",
          "type": "bytes32"
        }
      ],
      "name": "submitCode",
      "outputs": [],
      "payable": false,
      "stateMutability": "nonpayable",
      "type": "function",
      "signature": "0x936b913c"
    },
    {
      "constant": true,
      "inputs": [
        {
          "name": "_projectId",
          "type": "uint256"
        }
      ],
      "name": "getUsersByProjectId",
      "outputs": [
        {
          "name": "userIds",
          "type": "address[]"
        }
      ],
      "payable": false,
      "stateMutability": "view",
      "type": "function",
      "signature": "0x3616ac98"
    },
    {
      "constant": true,
      "inputs": [
        {
          "name": "_projectId",
          "type": "uint256"
        }
      ],
      "name": "getNameByProjectId",
      "outputs": [
        {
          "name": "",
          "type": "bytes32"
        }
      ],
      "payable": false,
      "stateMutability": "view",
      "type": "function",
      "signature": "0x93c70180"
    },
    {
      "constant": true,
      "inputs": [
        {
          "name": "_projectId",
          "type": "uint256"
        }
      ],
      "name": "getCommitsByProjectId",
      "outputs": [
        {
          "name": "commits",
          "type": "bytes32[]"
        }
      ],
      "payable": false,
      "stateMutability": "view",
      "type": "function",
      "signature": "0x882992f8"
    },
    {
      "constant": true,
      "inputs": [
        {
          "name": "_user",
          "type": "address"
        }
      ],
      "name": "getProjectsByUserId",
      "outputs": [
        {
          "name": "projectIds",
          "type": "uint256[]"
        }
      ],
      "payable": false,
      "stateMutability": "view",
      "type": "function",
      "signature": "0xc4520bd8"
    }
  ],
  "bytecode": "0x6080604052600160005534801561001557600080fd5b50610c25806100256000396000f3fe608060405260043610610083576000357c0100000000000000000000000000000000000000000000000000000000900463ffffffff1680633616ac98146100885780637a8fec2214610118578063817d3b1f14610173578063882992f8146101ae578063936b913c1461023e57806393c701801461028d578063c4520bd8146102dc575b600080fd5b34801561009457600080fd5b506100c1600480360360208110156100ab57600080fd5b8101908080359060200190929190505050610382565b6040518080602001828103825283818151815260200191508051906020019060200280838360005b838110156101045780820151818401526020810190506100e9565b505050509050019250505060405180910390f35b34801561012457600080fd5b506101716004803603604081101561013b57600080fd5b8101908080359060200190929190803573ffffffffffffffffffffffffffffffffffffffff169060200190929190505050610423565b005b34801561017f57600080fd5b506101ac6004803603602081101561019657600080fd5b81019080803590602001909291905050506106f2565b005b3480156101ba57600080fd5b506101e7600480360360208110156101d157600080fd5b8101908080359060200190929190505050610913565b6040518080602001828103825283818151815260200191508051906020019060200280838360005b8381101561022a57808201518184015260208101905061020f565b505050509050019250505060405180910390f35b34801561024a57600080fd5b5061028b6004803603606081101561026157600080fd5b8101908080359060200190929190803590602001909291908035906020019092919050505061097e565b005b34801561029957600080fd5b506102c6600480360360208110156102b057600080fd5b8101908080359060200190929190505050610b45565b6040518082815260200191505060405180910390f35b3480156102e857600080fd5b5061032b600480360360208110156102ff57600080fd5b81019080803573ffffffffffffffffffffffffffffffffffffffff169060200190929190505050610b62565b6040518080602001828103825283818151815260200191508051906020019060200280838360005b8381101561036e578082015181840152602081019050610353565b505050509050019250505060405180910390f35b60606005600083815260200190815260200160002080548060200260200160405190810160405280929190818152602001828054801561041757602002820191906000526020600020905b8160009054906101000a900473ffffffffffffffffffffffffffffffffffffffff1673ffffffffffffffffffffffffffffffffffffffff16815260200190600101908083116103cd575b50505050509050919050565b813373ffffffffffffffffffffffffffffffffffffffff166002600083815260200190815260200160002060009054906101000a900473ffffffffffffffffffffffffffffffffffffffff1673ffffffffffffffffffffffffffffffffffffffff16141515610520576040517f08c379a000000000000000000000000000000000000000000000000000000000815260040180806020018281038252602f8152602001807f536f7272792c206f6e6c792070726f6a656374206f776e65722063616e20736581526020017f6e6420696e7669746174696f6e732e000000000000000000000000000000000081525060400191505060405180910390fd5b60016006600085815260200190815260200160002060008473ffffffffffffffffffffffffffffffffffffffff1673ffffffffffffffffffffffffffffffffffffffff16815260200190815260200160002060006101000a81548160ff021916908315150217905550600560008481526020019081526020016000208290806001815401808255809150509060018203906000526020600020016000909192909190916101000a81548173ffffffffffffffffffffffffffffffffffffffff021916908373ffffffffffffffffffffffffffffffffffffffff16021790555050600760008373ffffffffffffffffffffffffffffffffffffffff1673ffffffffffffffffffffffffffffffffffffffff16815260200190815260200160002060005490806001815401808255809150509060018203906000526020600020016000909192909190915055508173ffffffffffffffffffffffffffffffffffffffff167fdc566b7ee873a6ee97fdb61d85486753d241b0d3fb6bd6271292745c32f9a8ed3385604051808373ffffffffffffffffffffffffffffffffffffffff1673ffffffffffffffffffffffffffffffffffffffff1681526020018281526020019250505060405180910390a2505050565b806001600080548152602001908152602001600020819055506001600660008054815260200190815260200160002060003373ffffffffffffffffffffffffffffffffffffffff1673ffffffffffffffffffffffffffffffffffffffff16815260200190815260200160002060006101000a81548160ff02191690831515021790555060056000805481526020019081526020016000203390806001815401808255809150509060018203906000526020600020016000909192909190916101000a81548173ffffffffffffffffffffffffffffffffffffffff021916908373ffffffffffffffffffffffffffffffffffffffff1602179055505033600260008054815260200190815260200160002060006101000a81548173ffffffffffffffffffffffffffffffffffffffff021916908373ffffffffffffffffffffffffffffffffffffffff160217905550600760003373ffffffffffffffffffffffffffffffffffffffff1673ffffffffffffffffffffffffffffffffffffffff16815260200190815260200160002060005490806001815401808255809150509060018203906000526020600020016000909192909190915055503373ffffffffffffffffffffffffffffffffffffffff167fcf5cc88f8a8c7be0f3344885908efc7cd11c3daef75029e99c81ca64b78875276000808154809291906001019190505583604051808381526020018281526020019250505060405180910390a250565b60606004600083815260200190815260200160002080548060200260200160405190810160405280929190818152602001828054801561097257602002820191906000526020600020905b81548152602001906001019080831161095e575b50505050509050919050565b82600115156006600083815260200190815260200160002060003373ffffffffffffffffffffffffffffffffffffffff1673ffffffffffffffffffffffffffffffffffffffff16815260200190815260200160002060009054906101000a900460ff161515141515610a7e576040517f08c379a000000000000000000000000000000000000000000000000000000000815260040180806020018281038252602e8152602001807f536f7272792c206f6e6c79207065726d697373696f6e6564207573657273206381526020017f616e207375626d697420636f646500000000000000000000000000000000000081525060400191505060405180910390fd5b82600360008681526020019081526020016000208190555060046000858152602001908152602001600020829080600181540180825580915050906001820390600052602060002001600090919290919091505550837fe9f0509f69a8b983b8bdb406266fe9dc7828b5f79d420d48ba682a93968947a63384604051808373ffffffffffffffffffffffffffffffffffffffff1673ffffffffffffffffffffffffffffffffffffffff1681526020018281526020019250505060405180910390a250505050565b600060016000838152602001908152602001600020549050919050565b6060600760008373ffffffffffffffffffffffffffffffffffffffff1673ffffffffffffffffffffffffffffffffffffffff168152602001908152602001600020805480602002602001604051908101604052809291908181526020018280548015610bed57602002820191906000526020600020905b815481526020019060010190808311610bd9575b5050505050905091905056fea165627a7a723058202001f2d890d5c3784ca4214590cca2aafd588e5bef9cb7e202aee78d69beb3cb0029",
  "source": "pragma solidity ^0.5.0;\n\ncontract Decentralize {\n  uint projectId = 1;\n\n  mapping(uint => bytes32) projectIdToName;\n  mapping(uint => address) projectIdToOwner;\n  mapping(uint => bytes32) projectIdToIPFSHash;\n  mapping(uint => bytes32[]) projectIdToCommits;\n\n  mapping(uint => address[]) projectIdToUsers;\n  mapping(uint => mapping(address => bool)) projectPermissions; // projectId => (userAddress => bool) ...does user have permission?\n\n  mapping(address => uint[]) userIdToProjects;\n\n  event ProjectCreated(address indexed _creator, uint _projectId, bytes32 _name);\n  event UserInvited(address indexed _invitee, address _inviter, uint _projectId);\n  event Commit(uint indexed _projectId, address _user, bytes32 _message);\n\n\n  modifier onlyOwner(uint _projectId){\n    require(projectIdToOwner[_projectId] == msg.sender, \"Sorry, only project owner can send invitations.\");\n    _;\n  }\n\n  modifier onlyPermissionedUsers(uint _projectId){\n    require(projectPermissions[_projectId][msg.sender] == true, \"Sorry, only permissioned users can submit code\");\n    _;\n  }\n\n  function createProject(bytes32 _name) public {\n    projectIdToName[projectId] = _name;\n    projectPermissions[projectId][msg.sender] = true;\n    projectIdToUsers[projectId].push(msg.sender);\n    projectIdToOwner[projectId] = msg.sender;\n\n    userIdToProjects[msg.sender].push(projectId);\n\n    emit ProjectCreated(msg.sender, projectId++, _name);\n  }\n\n  function inviteTeammate(uint _projectId, address _teammate) public onlyOwner(_projectId){\n    projectPermissions[_projectId][_teammate] = true;\n    projectIdToUsers[_projectId].push(_teammate);\n\n    userIdToProjects[_teammate].push(projectId);\n    \n    emit UserInvited(_teammate, msg.sender, _projectId);\n  }\n\n  // updates projectId => IPFShash pointer\n  function submitCode(uint _projectId, bytes32 _newHash, bytes32 _commitMessage) public onlyPermissionedUsers(_projectId){\n    projectIdToIPFSHash[_projectId] = _newHash;\n    projectIdToCommits[_projectId].push(_commitMessage);\n\n    emit Commit(_projectId, msg.sender, _commitMessage);\n  }\n\n  // Getter functions\n  function getUsersByProjectId(uint _projectId) public view returns(address[] memory userIds) {\n    return projectIdToUsers[_projectId];\n  }\n\n  function getNameByProjectId(uint _projectId) public view returns(bytes32) {\n    return projectIdToName[_projectId];\n  }\n\n  function getCommitsByProjectId(uint _projectId) public view returns(bytes32[] memory commits) {\n    return projectIdToCommits[_projectId];\n  }\n\n  function getProjectsByUserId(address _user) public view returns(uint[] memory projectIds){\n    return userIdToProjects[_user];\n  }\n\n}\n",
  "sourcePath": "/Users/michaeljcohen/Desktop/projects/decentralized_git/contracts/Decentralize.sol",
  "compiler": {
    "name": "solc",
    "version": "0.5.0+commit.1d4f565a.Emscripten.clang"
  },
  "schemaVersion": "3.0.2",
  "updatedAt": "2019-05-11T18:24:15.834Z",
  "devdoc": {
    "methods": {}
  },
  "userdoc": {
    "methods": {}
  }
}